{
  "_format": "hh-sol-artifact-1",
  "contractName": "FxERC721ChildTunnel",
  "sourceName": "contracts/tunnel/FxERC721ChildTunnel.sol",
  "abi": [
    {
      "inputs": [
        {
          "internalType": "address",
          "name": "fxChild_",
          "type": "address"
        }
      ],
      "stateMutability": "nonpayable",
      "type": "constructor"
    },
    {
      "anonymous": false,
      "inputs": [
        {
          "indexed": true,
          "internalType": "address",
          "name": "childToken",
          "type": "address"
        },
        {
          "indexed": true,
          "internalType": "address",
          "name": "user",
          "type": "address"
        },
        {
          "indexed": false,
          "internalType": "uint256[]",
          "name": "tokenIds",
          "type": "uint256[]"
        }
      ],
      "name": "Deposit",
      "type": "event"
    },
    {
      "anonymous": false,
      "inputs": [
        {
          "indexed": false,
          "internalType": "bytes",
          "name": "message",
          "type": "bytes"
        }
      ],
      "name": "MessageSent",
      "type": "event"
    },
    {
      "anonymous": false,
      "inputs": [
        {
          "indexed": true,
          "internalType": "address",
          "name": "previousOwner",
          "type": "address"
        },
        {
          "indexed": true,
          "internalType": "address",
          "name": "newOwner",
          "type": "address"
        }
      ],
      "name": "OwnershipTransferred",
      "type": "event"
    },
    {
      "anonymous": false,
      "inputs": [
        {
          "indexed": true,
          "internalType": "address",
          "name": "childToken",
          "type": "address"
        },
        {
          "indexed": true,
          "internalType": "address",
          "name": "user",
          "type": "address"
        },
        {
          "indexed": false,
          "internalType": "uint256[]",
          "name": "tokenIds",
          "type": "uint256[]"
        }
      ],
      "name": "Withdraw",
      "type": "event"
    },
    {
      "inputs": [],
      "name": "BATCH_LIMIT",
      "outputs": [
        {
          "internalType": "uint256",
          "name": "",
          "type": "uint256"
        }
      ],
      "stateMutability": "view",
      "type": "function"
    },
    {
      "inputs": [],
      "name": "DEPOSIT",
      "outputs": [
        {
          "internalType": "bytes32",
          "name": "",
          "type": "bytes32"
        }
      ],
      "stateMutability": "view",
      "type": "function"
    },
    {
      "inputs": [],
      "name": "WITHDRAW",
      "outputs": [
        {
          "internalType": "bytes32",
          "name": "",
          "type": "bytes32"
        }
      ],
      "stateMutability": "view",
      "type": "function"
    },
    {
      "inputs": [
        {
          "internalType": "address",
          "name": "",
          "type": "address"
        }
      ],
      "name": "childToRootToken",
      "outputs": [
        {
          "internalType": "address",
          "name": "",
          "type": "address"
        }
      ],
      "stateMutability": "view",
      "type": "function"
    },
    {
      "inputs": [],
      "name": "fxChild",
      "outputs": [
        {
          "internalType": "address",
          "name": "",
          "type": "address"
        }
      ],
      "stateMutability": "view",
      "type": "function"
    },
    {
      "inputs": [],
      "name": "fxRootTunnel",
      "outputs": [
        {
          "internalType": "address",
          "name": "",
          "type": "address"
        }
      ],
      "stateMutability": "view",
      "type": "function"
    },
    {
      "inputs": [
        {
          "internalType": "address",
          "name": "rootToken_",
          "type": "address"
        },
        {
          "internalType": "address",
          "name": "childToken_",
          "type": "address"
        }
      ],
      "name": "mapToken",
      "outputs": [],
      "stateMutability": "nonpayable",
      "type": "function"
    },
    {
      "inputs": [
        {
          "internalType": "address",
          "name": "",
          "type": "address"
        },
        {
          "internalType": "address",
          "name": "",
          "type": "address"
        },
        {
          "internalType": "uint256",
          "name": "",
          "type": "uint256"
        },
        {
          "internalType": "bytes",
          "name": "",
          "type": "bytes"
        }
      ],
      "name": "onERC721Received",
      "outputs": [
        {
          "internalType": "bytes4",
          "name": "",
          "type": "bytes4"
        }
      ],
      "stateMutability": "pure",
      "type": "function"
    },
    {
      "inputs": [],
      "name": "owner",
      "outputs": [
        {
          "internalType": "address",
          "name": "",
          "type": "address"
        }
      ],
      "stateMutability": "view",
      "type": "function"
    },
    {
      "inputs": [
        {
          "internalType": "uint256",
          "name": "stateId",
          "type": "uint256"
        },
        {
          "internalType": "address",
          "name": "rootMessageSender",
          "type": "address"
        },
        {
          "internalType": "bytes",
          "name": "data",
          "type": "bytes"
        }
      ],
      "name": "processMessageFromRoot",
      "outputs": [],
      "stateMutability": "nonpayable",
      "type": "function"
    },
    {
      "inputs": [],
      "name": "renounceOwnership",
      "outputs": [],
      "stateMutability": "nonpayable",
      "type": "function"
    },
    {
      "inputs": [
        {
          "internalType": "address",
          "name": "rootTunnel_",
          "type": "address"
        }
      ],
      "name": "setFxRootTunnel",
      "outputs": [],
      "stateMutability": "nonpayable",
      "type": "function"
    },
    {
      "inputs": [
        {
          "internalType": "address",
          "name": "newOwner",
          "type": "address"
        }
      ],
      "name": "transferOwnership",
      "outputs": [],
      "stateMutability": "nonpayable",
      "type": "function"
    },
    {
      "inputs": [
        {
          "internalType": "address",
          "name": "childToken_",
          "type": "address"
        },
        {
          "internalType": "uint256[]",
          "name": "tokenIds_",
          "type": "uint256[]"
        }
      ],
      "name": "withdraw",
      "outputs": [],
      "stateMutability": "nonpayable",
      "type": "function"
    }
  ],
  "bytecode": "0x608060405234801561001057600080fd5b5060405161146338038061146383398101604081905261002f916100ba565b8061004061003b610066565b61006a565b600180546001600160a01b0319166001600160a01b0392909216919091179055506100e8565b3390565b600080546001600160a01b038381166001600160a01b0319831681178455604051919092169283917f8be0079c531659141344cd1fd0a4f28419497f9722a3daafe3b4186f6b6457e09190a35050565b6000602082840312156100cb578081fd5b81516001600160a01b03811681146100e1578182fd5b9392505050565b61136c806100f76000396000f3fe608060405234801561001057600080fd5b50600436106100ea5760003560e01c80638293744b1161008c5780639559c0bd116100665780639559c0bd146101a85780639a7c4b71146101b0578063d81c8e52146101c3578063f2fde38b146101cb576100ea565b80638293744b1461017a578063888370941461018d5780638da5cb5b146101a0576100ea565b806347400269116100c857806347400269146101425780636e86b77014610157578063715018a61461016a5780637f1e9cb014610172576100ea565b8063150b7a02146100ef57806316ba719714610118578063450d11f01461012d575b600080fd5b6101026100fd366004610c8f565b6101de565b60405161010f9190611085565b60405180910390f35b610120610208565b60405161010f9190611063565b61013561022c565b60405161010f9190610f67565b610155610150366004610c57565b610248565b005b610135610165366004610b63565b610319565b610155610341565b6101356103c0565b610155610188366004610d00565b6103dc565b61015561019b366004610b63565b610610565b6101356106ca565b6101206106e6565b6101556101be366004610e3c565b6106eb565b610120610783565b6101556101d9366004610b63565b6107a7565b7f150b7a020000000000000000000000000000000000000000000000000000000095945050505050565b7f7a8dc26796a1e50e6e190b70259f58f6a4edd5b22280ceecc82b687b8e98286981565b60015473ffffffffffffffffffffffffffffffffffffffff1681565b610250610873565b73ffffffffffffffffffffffffffffffffffffffff1661026e6106ca565b73ffffffffffffffffffffffffffffffffffffffff16146102c4576040517f08c379a00000000000000000000000000000000000000000000000000000000081526004016102bb906111c7565b60405180910390fd5b73ffffffffffffffffffffffffffffffffffffffff90811660009081526003602052604090208054919092167fffffffffffffffffffffffff0000000000000000000000000000000000000000909116179055565b60036020526000908152604090205473ffffffffffffffffffffffffffffffffffffffff1681565b610349610873565b73ffffffffffffffffffffffffffffffffffffffff166103676106ca565b73ffffffffffffffffffffffffffffffffffffffff16146103b4576040517f08c379a00000000000000000000000000000000000000000000000000000000081526004016102bb906111c7565b6103be6000610877565b565b60025473ffffffffffffffffffffffffffffffffffffffff1681565b73ffffffffffffffffffffffffffffffffffffffff80841660009081526003602052604090205484911661043c576040517f08c379a00000000000000000000000000000000000000000000000000000000081526004016102bb906110c5565b600f821115610477576040517f08c379a00000000000000000000000000000000000000000000000000000000081526004016102bb906111fc565b6040517fba36b92d000000000000000000000000000000000000000000000000000000008152849073ffffffffffffffffffffffffffffffffffffffff82169063ba36b92d906104cf90339088908890600401610fcc565b600060405180830381600087803b1580156104e957600080fd5b505af11580156104fd573d6000803e3d6000fd5b5050505073ffffffffffffffffffffffffffffffffffffffff858116600090815260036020908152604080832054905193169261054291849133918a918a9101610f88565b60405160208183030381529060405290507f7a8dc26796a1e50e6e190b70259f58f6a4edd5b22280ceecc82b687b8e9828698160405160200161058692919061106c565b60405160208183030381529060405290506105a0816108ec565b3373ffffffffffffffffffffffffffffffffffffffff168773ffffffffffffffffffffffffffffffffffffffff167fbdffac8b479cba5b972f59c832f2e203f0c2d37e3c281b22767d8a566885554e88886040516105ff92919061103c565b60405180910390a350505050505050565b610618610873565b73ffffffffffffffffffffffffffffffffffffffff166106366106ca565b73ffffffffffffffffffffffffffffffffffffffff1614610683576040517f08c379a00000000000000000000000000000000000000000000000000000000081526004016102bb906111c7565b600280547fffffffffffffffffffffffff00000000000000000000000000000000000000001673ffffffffffffffffffffffffffffffffffffffff92909216919091179055565b60005473ffffffffffffffffffffffffffffffffffffffff1690565b600f81565b60015473ffffffffffffffffffffffffffffffffffffffff16331461073c576040517f08c379a00000000000000000000000000000000000000000000000000000000081526004016102bb90611159565b61077d848484848080601f01602080910402602001604051908101604052809392919081815260200183838082843760009201919091525061092692505050565b50505050565b7f87a7811f4bfedea3d341ad165680ae306b01aaeacc205d227629cf157dd9f82181565b6107af610873565b73ffffffffffffffffffffffffffffffffffffffff166107cd6106ca565b73ffffffffffffffffffffffffffffffffffffffff161461081a576040517f08c379a00000000000000000000000000000000000000000000000000000000081526004016102bb906111c7565b73ffffffffffffffffffffffffffffffffffffffff8116610867576040517f08c379a00000000000000000000000000000000000000000000000000000000081526004016102bb906110fc565b61087081610877565b50565b3390565b6000805473ffffffffffffffffffffffffffffffffffffffff8381167fffffffffffffffffffffffff0000000000000000000000000000000000000000831681178455604051919092169283917f8be0079c531659141344cd1fd0a4f28419497f9722a3daafe3b4186f6b6457e09190a35050565b7f8c5261668696ce22758910d05bab8f186d6eb247ceac2af2e82c7dc17669b0368160405161091b91906110b2565b60405180910390a150565b600254829073ffffffffffffffffffffffffffffffffffffffff80831691161461097c576040517f08c379a00000000000000000000000000000000000000000000000000000000081526004016102bb90611190565b600080838060200190518101906109939190610d82565b915091507f87a7811f4bfedea3d341ad165680ae306b01aaeacc205d227629cf157dd9f8218214156109cd576109c881610a07565b6109ff565b6040517f08c379a00000000000000000000000000000000000000000000000000000000081526004016102bb90611233565b505050505050565b600080600083806020019051810190610a209190610b86565b6040517fde836ebd0000000000000000000000000000000000000000000000000000000081529295509093509150839073ffffffffffffffffffffffffffffffffffffffff82169063de836ebd90610a7e9086908690600401611005565b600060405180830381600087803b158015610a9857600080fd5b505af1158015610aac573d6000803e3d6000fd5b505050508273ffffffffffffffffffffffffffffffffffffffff168473ffffffffffffffffffffffffffffffffffffffff167fab499d78eeaf7dc9a2e8a2eb468058740e0f4bda8c6b769c902c65b5ebc02c6484604051610b0d9190611050565b60405180910390a35050505050565b60008083601f840112610b2d578182fd5b50813567ffffffffffffffff811115610b44578182fd5b602083019150836020828501011115610b5c57600080fd5b9250929050565b600060208284031215610b74578081fd5b8135610b7f81611314565b9392505050565b600080600060608486031215610b9a578182fd5b8351610ba581611314565b80935050602080850151610bb881611314565b604086015190935067ffffffffffffffff80821115610bd5578384fd5b818701915087601f830112610be8578384fd5b815181811115610bfa57610bfa6112e5565b8381029150610c0a84830161126a565b8181528481019084860184860187018c1015610c24578788fd5b8795505b83861015610c46578051835260019590950194918601918601610c28565b508096505050505050509250925092565b60008060408385031215610c69578182fd5b8235610c7481611314565b91506020830135610c8481611314565b809150509250929050565b600080600080600060808688031215610ca6578081fd5b8535610cb181611314565b94506020860135610cc181611314565b935060408601359250606086013567ffffffffffffffff811115610ce3578182fd5b610cef88828901610b1c565b969995985093965092949392505050565b600080600060408486031215610d14578283fd5b8335610d1f81611314565b9250602084013567ffffffffffffffff80821115610d3b578384fd5b818601915086601f830112610d4e578384fd5b813581811115610d5c578485fd5b8760208083028501011115610d6f578485fd5b6020830194508093505050509250925092565b60008060408385031215610d94578182fd5b82519150602083015167ffffffffffffffff80821115610db2578283fd5b818501915085601f830112610dc5578283fd5b815181811115610dd757610dd76112e5565b610e0860207fffffffffffffffffffffffffffffffffffffffffffffffffffffffffffffffe0601f8401160161126a565b9150808252866020828501011115610e1e578384fd5b610e2f8160208401602086016112b9565b5080925050509250929050565b60008060008060608587031215610e51578384fd5b843593506020850135610e6381611314565b9250604085013567ffffffffffffffff811115610e7e578283fd5b610e8a87828801610b1c565b95989497509550505050565b60008284527f07ffffffffffffffffffffffffffffffffffffffffffffffffffffffffffffff831115610ec7578081fd5b6020830280836020870137939093016020019283525090919050565b6000815180845260208085019450808401835b83811015610f1257815187529582019590820190600101610ef6565b509495945050505050565b60008151808452610f358160208601602086016112b9565b601f017fffffffffffffffffffffffffffffffffffffffffffffffffffffffffffffffe0169290920160200192915050565b73ffffffffffffffffffffffffffffffffffffffff91909116815260200190565b600073ffffffffffffffffffffffffffffffffffffffff808716835280861660208401525060606040830152610fc2606083018486610e96565b9695505050505050565b600073ffffffffffffffffffffffffffffffffffffffff8516825260406020830152610ffc604083018486610e96565b95945050505050565b600073ffffffffffffffffffffffffffffffffffffffff84168252604060208301526110346040830184610ee3565b949350505050565b600060208252611034602083018486610e96565b600060208252610b7f6020830184610ee3565b90815260200190565b6000838252604060208301526110346040830184610f1d565b7fffffffff0000000000000000000000000000000000000000000000000000000091909116815260200190565b600060208252610b7f6020830184610f1d565b6020808252601d908201527f4368696c6454756e6e656c3a20746f6b656e206e6f74206d6170706564000000604082015260600190565b60208082526026908201527f4f776e61626c653a206e6577206f776e657220697320746865207a65726f206160408201527f6464726573730000000000000000000000000000000000000000000000000000606082015260800190565b60208082526014908201527f467843543a20494e56414c49445f53454e444552000000000000000000000000604082015260600190565b6020808252601e908201527f467843543a20494e56414c49445f53454e4445525f46524f4d5f524f4f540000604082015260600190565b6020808252818101527f4f776e61626c653a2063616c6c6572206973206e6f7420746865206f776e6572604082015260600190565b60208082526018908201527f4368696c6454756e6e656c3a206261746368206c696d69740000000000000000604082015260600190565b60208082526019908201527f4368696c6454756e6e656c3a20696e76616c69642073796e6300000000000000604082015260600190565b604051601f82017fffffffffffffffffffffffffffffffffffffffffffffffffffffffffffffffe016810167ffffffffffffffff811182821017156112b1576112b16112e5565b604052919050565b60005b838110156112d45781810151838201526020016112bc565b8381111561077d5750506000910152565b7f4e487b7100000000000000000000000000000000000000000000000000000000600052604160045260246000fd5b73ffffffffffffffffffffffffffffffffffffffff8116811461087057600080fdfea2646970667358221220d120f55e27e9779ae9ea81ec0a5af7a24f4fa1a481ac740f4c1af14d2e6b170664736f6c63430008010033",
  "linkReferences": {},
  "deployedLinkReferences": {}
}